{
  "contractName": "LandRegistry",
  "abi": [
    {
      "constant": true,
      "inputs": [
        {
          "name": "",
          "type": "address"
        }
      ],
      "name": "User_Mapping",
      "outputs": [
        {
          "name": "",
          "type": "bool"
        }
      ],
      "payable": false,
      "stateMutability": "view",
      "type": "function",
      "signature": "0x126669ad"
    },
    {
      "constant": true,
      "inputs": [
        {
          "name": "",
          "type": "uint256"
        }
      ],
      "name": "Land_Mapping",
      "outputs": [
        {
          "name": "surveyNo",
          "type": "uint256"
        },
        {
          "name": "TotalArea",
          "type": "uint256"
        },
        {
          "name": "city",
          "type": "string"
        },
        {
          "name": "Revenue_Div",
          "type": "string"
        },
        {
          "name": "Mandal",
          "type": "string"
        },
        {
          "name": "District",
          "type": "string"
        },
        {
          "name": "state",
          "type": "string"
        }
      ],
      "payable": false,
      "stateMutability": "view",
      "type": "function",
      "signature": "0x4fa62e9b"
    },
    {
      "constant": true,
      "inputs": [
        {
          "name": "",
          "type": "uint256"
        }
      ],
      "name": "SurveyOwner_Mapping",
      "outputs": [
        {
          "name": "",
          "type": "address"
        }
      ],
      "payable": false,
      "stateMutability": "view",
      "type": "function",
      "signature": "0x763d9292"
    },
    {
      "constant": true,
      "inputs": [
        {
          "name": "",
          "type": "uint256"
        }
      ],
      "name": "OwnerCount",
      "outputs": [
        {
          "name": "",
          "type": "uint256"
        }
      ],
      "payable": false,
      "stateMutability": "view",
      "type": "function",
      "signature": "0x83757a09"
    },
    {
      "constant": true,
      "inputs": [
        {
          "name": "",
          "type": "uint256"
        }
      ],
      "name": "SurveyNo_Mapping",
      "outputs": [
        {
          "name": "",
          "type": "bool"
        }
      ],
      "payable": false,
      "stateMutability": "view",
      "type": "function",
      "signature": "0xa50667a4"
    },
    {
      "constant": true,
      "inputs": [
        {
          "name": "",
          "type": "uint256"
        },
        {
          "name": "",
          "type": "uint256"
        }
      ],
      "name": "Owner_Mapping",
      "outputs": [
        {
          "name": "Name",
          "type": "string"
        },
        {
          "name": "Father_Name",
          "type": "string"
        },
        {
          "name": "Aadhar_Number",
          "type": "uint256"
        },
        {
          "name": "Pan_Number",
          "type": "string"
        },
        {
          "name": "Cost",
          "type": "uint256"
        },
        {
          "name": "Date",
          "type": "string"
        }
      ],
      "payable": false,
      "stateMutability": "view",
      "type": "function",
      "signature": "0xf3da328a"
    },
    {
      "anonymous": false,
      "inputs": [
        {
          "indexed": false,
          "name": "_surveyNo",
          "type": "uint256"
        }
      ],
      "name": "OwnerRegistration",
      "type": "event",
      "signature": "0xe980bc5fd411d6bf3fe5b165aa9df5cc3f1829dce2fd042df5ea529c3a4b3607"
    },
    {
      "anonymous": false,
      "inputs": [
        {
          "indexed": false,
          "name": "_surveyNo",
          "type": "uint256"
        }
      ],
      "name": "Registration",
      "type": "event",
      "signature": "0xdd1dcd9f0ec69236ffab236334e88917115de54f2dee0b2302fb12935f8de29a"
    },
    {
      "constant": true,
      "inputs": [
        {
          "name": "_SurveyNo",
          "type": "uint256"
        }
      ],
      "name": "getLandDetails",
      "outputs": [
        {
          "name": "",
          "type": "uint256"
        },
        {
          "name": "",
          "type": "uint256"
        },
        {
          "name": "",
          "type": "string"
        },
        {
          "name": "",
          "type": "string"
        },
        {
          "name": "",
          "type": "string"
        },
        {
          "name": "",
          "type": "string"
        },
        {
          "name": "",
          "type": "string"
        }
      ],
      "payable": false,
      "stateMutability": "view",
      "type": "function",
      "signature": "0xfe0cb7dc"
    },
    {
      "constant": true,
      "inputs": [
        {
          "name": "_SurveyNo",
          "type": "uint256"
        },
        {
          "name": "_count",
          "type": "uint256"
        }
      ],
      "name": "getOwnerDetails",
      "outputs": [
        {
          "name": "",
          "type": "string"
        },
        {
          "name": "",
          "type": "string"
        },
        {
          "name": "",
          "type": "uint256"
        },
        {
          "name": "",
          "type": "string"
        },
        {
          "name": "",
          "type": "uint256"
        },
        {
          "name": "",
          "type": "string"
        }
      ],
      "payable": false,
      "stateMutability": "view",
      "type": "function",
      "signature": "0x70c15651"
    },
    {
      "constant": true,
      "inputs": [],
      "name": "getPresentAddress",
      "outputs": [
        {
          "name": "",
          "type": "address"
        }
      ],
      "payable": false,
      "stateMutability": "view",
      "type": "function",
      "signature": "0xb94620f2"
    },
    {
      "constant": true,
      "inputs": [
        {
          "name": "_SurveyNo",
          "type": "uint256"
        }
      ],
      "name": "getOwnerAddress",
      "outputs": [
        {
          "name": "",
          "type": "address"
        }
      ],
      "payable": false,
      "stateMutability": "view",
      "type": "function",
      "signature": "0xdd550958"
    },
    {
      "constant": true,
      "inputs": [],
      "name": "CheckUser",
      "outputs": [
        {
          "name": "",
          "type": "bool"
        }
      ],
      "payable": false,
      "stateMutability": "view",
      "type": "function",
      "signature": "0x8647f1dc"
    },
    {
      "constant": true,
      "inputs": [
        {
          "name": "_SurveyNo",
          "type": "uint256"
        }
      ],
      "name": "CheckSurveyNumber",
      "outputs": [
        {
          "name": "",
          "type": "bool"
        }
      ],
      "payable": false,
      "stateMutability": "view",
      "type": "function",
      "signature": "0x8b047fd5"
    },
    {
      "constant": false,
      "inputs": [
        {
          "name": "_SurveyNo",
          "type": "uint256"
        },
        {
          "name": "_TotalArea",
          "type": "uint256"
        },
        {
          "name": "_City",
          "type": "string"
        },
        {
          "name": "_RevenueDist",
          "type": "string"
        },
        {
          "name": "_Mandal",
          "type": "string"
        },
        {
          "name": "_District",
          "type": "string"
        },
        {
          "name": "_State",
          "type": "string"
        },
        {
          "name": "_Name",
          "type": "string"
        },
        {
          "name": "_FName",
          "type": "string"
        },
        {
          "name": "_Aadhar",
          "type": "uint256"
        },
        {
          "name": "_PAN",
          "type": "string"
        },
        {
          "name": "_Cost",
          "type": "uint256"
        },
        {
          "name": "_Date",
          "type": "string"
        }
      ],
      "name": "RegisterLand",
      "outputs": [],
      "payable": false,
      "stateMutability": "nonpayable",
      "type": "function",
      "signature": "0xbfa8a949"
    },
    {
      "constant": false,
      "inputs": [
        {
          "name": "_SurveyNo",
          "type": "uint256"
        },
        {
          "name": "_Name",
          "type": "string"
        },
        {
          "name": "_FName",
          "type": "string"
        },
        {
          "name": "_Aadhar",
          "type": "uint256"
        },
        {
          "name": "_PAN",
          "type": "string"
        },
        {
          "name": "_Cost",
          "type": "uint256"
        },
        {
          "name": "_Date",
          "type": "string"
        },
        {
          "name": "_address",
          "type": "address"
        }
      ],
      "name": "RegisterOwner",
      "outputs": [],
      "payable": false,
      "stateMutability": "nonpayable",
      "type": "function",
      "signature": "0xac8b42ed"
    },
    {
      "constant": true,
      "inputs": [
        {
          "name": "_SurveyNo",
          "type": "uint256"
        }
      ],
      "name": "getOwnerCount",
      "outputs": [
        {
          "name": "",
          "type": "int256"
        }
      ],
      "payable": false,
      "stateMutability": "view",
      "type": "function",
      "signature": "0x13f66c9a"
    }
  ],
  "bytecode": "0x608060405234801561001057600080fd5b50612d6b806100206000396000f3fe6080604052600436106100db576000357c0100000000000000000000000000000000000000000000000000000000900463ffffffff168063126669ad146100e057806313f66c9a146101495780634fa62e9b1461019857806370c156511461040a578063763d92921461061a57806383757a09146106955780638647f1dc146106e45780638b047fd514610713578063a50667a414610766578063ac8b42ed146107b9578063b94620f214610a85578063bfa8a94914610adc578063dd55095814611085578063f3da328a14611100578063fe0cb7dc14611310575b600080fd5b3480156100ec57600080fd5b5061012f6004803603602081101561010357600080fd5b81019080803573ffffffffffffffffffffffffffffffffffffffff169060200190929190505050611582565b604051808215151515815260200191505060405180910390f35b34801561015557600080fd5b506101826004803603602081101561016c57600080fd5b81019080803590602001909291905050506115a2565b6040518082815260200191505060405180910390f35b3480156101a457600080fd5b506101d1600480360360208110156101bb57600080fd5b81019080803590602001909291905050506116a9565b60405180888152602001878152602001806020018060200180602001806020018060200186810386528b818151815260200191508051906020019080838360005b8381101561022d578082015181840152602081019050610212565b50505050905090810190601f16801561025a5780820380516001836020036101000a031916815260200191505b5086810385528a818151815260200191508051906020019080838360005b83811015610293578082015181840152602081019050610278565b50505050905090810190601f1680156102c05780820380516001836020036101000a031916815260200191505b50868103845289818151815260200191508051906020019080838360005b838110156102f95780820151818401526020810190506102de565b50505050905090810190601f1680156103265780820380516001836020036101000a031916815260200191505b50868103835288818151815260200191508051906020019080838360005b8381101561035f578082015181840152602081019050610344565b50505050905090810190601f16801561038c5780820380516001836020036101000a031916815260200191505b50868103825287818151815260200191508051906020019080838360005b838110156103c55780820151818401526020810190506103aa565b50505050905090810190601f1680156103f25780820380516001836020036101000a031916815260200191505b509c5050505050505050505050505060405180910390f35b34801561041657600080fd5b5061044d6004803603604081101561042d57600080fd5b8101908080359060200190929190803590602001909291905050506119e3565b604051808060200180602001878152602001806020018681526020018060200185810385528b818151815260200191508051906020019080838360005b838110156104a557808201518184015260208101905061048a565b50505050905090810190601f1680156104d25780820380516001836020036101000a031916815260200191505b5085810384528a818151815260200191508051906020019080838360005b8381101561050b5780820151818401526020810190506104f0565b50505050905090810190601f1680156105385780820380516001836020036101000a031916815260200191505b50858103835288818151815260200191508051906020019080838360005b83811015610571578082015181840152602081019050610556565b50505050905090810190601f16801561059e5780820380516001836020036101000a031916815260200191505b50858103825286818151815260200191508051906020019080838360005b838110156105d75780820151818401526020810190506105bc565b50505050905090810190601f1680156106045780820380516001836020036101000a031916815260200191505b509a505050505050505050505060405180910390f35b34801561062657600080fd5b506106536004803603602081101561063d57600080fd5b8101908080359060200190929190505050611e70565b604051808273ffffffffffffffffffffffffffffffffffffffff1673ffffffffffffffffffffffffffffffffffffffff16815260200191505060405180910390f35b3480156106a157600080fd5b506106ce600480360360208110156106b857600080fd5b8101908080359060200190929190505050611ea3565b6040518082815260200191505060405180910390f35b3480156106f057600080fd5b506106f9611ebb565b604051808215151515815260200191505060405180910390f35b34801561071f57600080fd5b5061074c6004803603602081101561073657600080fd5b8101908080359060200190929190505050611f0e565b604051808215151515815260200191505060405180910390f35b34801561077257600080fd5b5061079f6004803603602081101561078957600080fd5b8101908080359060200190929190505050611f38565b604051808215151515815260200191505060405180910390f35b3480156107c557600080fd5b50610a8360048036036101008110156107dd57600080fd5b81019080803590602001909291908035906020019064010000000081111561080457600080fd5b82018360208201111561081657600080fd5b8035906020019184600183028401116401000000008311171561083857600080fd5b91908080601f016020809104026020016040519081016040528093929190818152602001838380828437600081840152601f19601f8201169050808301925050505050505091929192908035906020019064010000000081111561089b57600080fd5b8201836020820111156108ad57600080fd5b803590602001918460018302840111640100000000831117156108cf57600080fd5b91908080601f016020809104026020016040519081016040528093929190818152602001838380828437600081840152601f19601f820116905080830192505050505050509192919290803590602001909291908035906020019064010000000081111561093c57600080fd5b82018360208201111561094e57600080fd5b8035906020019184600183028401116401000000008311171561097057600080fd5b91908080601f016020809104026020016040519081016040528093929190818152602001838380828437600081840152601f19601f82011690508083019250505050505050919291929080359060200190929190803590602001906401000000008111156109dd57600080fd5b8201836020820111156109ef57600080fd5b80359060200191846001830284011164010000000083111715610a1157600080fd5b91908080601f016020809104026020016040519081016040528093929190818152602001838380828437600081840152601f19601f820116905080830192505050505050509192919290803573ffffffffffffffffffffffffffffffffffffffff169060200190929190505050611f58565b005b348015610a9157600080fd5b50610a9a6121f1565b604051808273ffffffffffffffffffffffffffffffffffffffff1673ffffffffffffffffffffffffffffffffffffffff16815260200191505060405180910390f35b348015610ae857600080fd5b5061108360048036036101a0811015610b0057600080fd5b81019080803590602001909291908035906020019092919080359060200190640100000000811115610b3157600080fd5b820183602082011115610b4357600080fd5b80359060200191846001830284011164010000000083111715610b6557600080fd5b91908080601f016020809104026020016040519081016040528093929190818152602001838380828437600081840152601f19601f82011690508083019250505050505050919291929080359060200190640100000000811115610bc857600080fd5b820183602082011115610bda57600080fd5b80359060200191846001830284011164010000000083111715610bfc57600080fd5b91908080601f016020809104026020016040519081016040528093929190818152602001838380828437600081840152601f19601f82011690508083019250505050505050919291929080359060200190640100000000811115610c5f57600080fd5b820183602082011115610c7157600080fd5b80359060200191846001830284011164010000000083111715610c9357600080fd5b91908080601f016020809104026020016040519081016040528093929190818152602001838380828437600081840152601f19601f82011690508083019250505050505050919291929080359060200190640100000000811115610cf657600080fd5b820183602082011115610d0857600080fd5b80359060200191846001830284011164010000000083111715610d2a57600080fd5b91908080601f016020809104026020016040519081016040528093929190818152602001838380828437600081840152601f19601f82011690508083019250505050505050919291929080359060200190640100000000811115610d8d57600080fd5b820183602082011115610d9f57600080fd5b80359060200191846001830284011164010000000083111715610dc157600080fd5b91908080601f016020809104026020016040519081016040528093929190818152602001838380828437600081840152601f19601f82011690508083019250505050505050919291929080359060200190640100000000811115610e2457600080fd5b820183602082011115610e3657600080fd5b80359060200191846001830284011164010000000083111715610e5857600080fd5b91908080601f016020809104026020016040519081016040528093929190818152602001838380828437600081840152601f19601f82011690508083019250505050505050919291929080359060200190640100000000811115610ebb57600080fd5b820183602082011115610ecd57600080fd5b80359060200191846001830284011164010000000083111715610eef57600080fd5b91908080601f016020809104026020016040519081016040528093929190818152602001838380828437600081840152601f19601f8201169050808301925050505050505091929192908035906020019092919080359060200190640100000000811115610f5c57600080fd5b820183602082011115610f6e57600080fd5b80359060200191846001830284011164010000000083111715610f9057600080fd5b91908080601f016020809104026020016040519081016040528093929190818152602001838380828437600081840152601f19601f8201169050808301925050505050505091929192908035906020019092919080359060200190640100000000811115610ffd57600080fd5b82018360208201111561100f57600080fd5b8035906020019184600183028401116401000000008311171561103157600080fd5b91908080601f016020809104026020016040519081016040528093929190818152602001838380828437600081840152601f19601f8201169050808301925050505050505091929192905050506121f9565b005b34801561109157600080fd5b506110be600480360360208110156110a857600080fd5b81019080803590602001909291905050506123e1565b604051808273ffffffffffffffffffffffffffffffffffffffff1673ffffffffffffffffffffffffffffffffffffffff16815260200191505060405180910390f35b34801561110c57600080fd5b506111436004803603604081101561112357600080fd5b8101908080359060200190929190803590602001909291905050506124f4565b604051808060200180602001878152602001806020018681526020018060200185810385528b818151815260200191508051906020019080838360005b8381101561119b578082015181840152602081019050611180565b50505050905090810190601f1680156111c85780820380516001836020036101000a031916815260200191505b5085810384528a818151815260200191508051906020019080838360005b838110156112015780820151818401526020810190506111e6565b50505050905090810190601f16801561122e5780820380516001836020036101000a031916815260200191505b50858103835288818151815260200191508051906020019080838360005b8381101561126757808201518184015260208101905061124c565b50505050905090810190601f1680156112945780820380516001836020036101000a031916815260200191505b50858103825286818151815260200191508051906020019080838360005b838110156112cd5780820151818401526020810190506112b2565b50505050905090810190601f1680156112fa5780820380516001836020036101000a031916815260200191505b509a505050505050505050505060405180910390f35b34801561131c57600080fd5b506113496004803603602081101561133357600080fd5b81019080803590602001909291905050506127ac565b60405180888152602001878152602001806020018060200180602001806020018060200186810386528b818151815260200191508051906020019080838360005b838110156113a557808201518184015260208101905061138a565b50505050905090810190601f1680156113d25780820380516001836020036101000a031916815260200191505b5086810385528a818151815260200191508051906020019080838360005b8381101561140b5780820151818401526020810190506113f0565b50505050905090810190601f1680156114385780820380516001836020036101000a031916815260200191505b50868103845289818151815260200191508051906020019080838360005b83811015611471578082015181840152602081019050611456565b50505050905090810190601f16801561149e5780820380516001836020036101000a031916815260200191505b50868103835288818151815260200191508051906020019080838360005b838110156114d75780820151818401526020810190506114bc565b50505050905090810190601f1680156115045780820380516001836020036101000a031916815260200191505b50868103825287818151815260200191508051906020019080838360005b8381101561153d578082015181840152602081019050611522565b50505050905090810190601f16801561156a5780820380516001836020036101000a031916815260200191505b509c5050505050505050505050505060405180910390f35b60006020528060005260406000206000915054906101000a900460ff1681565b60003373ffffffffffffffffffffffffffffffffffffffff166002600084815260200190815260200160002060009054906101000a900473ffffffffffffffffffffffffffffffffffffffff1673ffffffffffffffffffffffffffffffffffffffff1614801561165a57506000803373ffffffffffffffffffffffffffffffffffffffff1673ffffffffffffffffffffffffffffffffffffffff16815260200190815260200160002060009054906101000a900460ff165b1561167a57600560008381526020019081526020016000205490506116a4565b60007fffffffffffffffffffffffffffffffffffffffffffffffffffffffffffffffff9050809150505b919050565b6003602052806000526040600020600091509050806000015490806001015490806002018054600181600116156101000203166002900480601f0160208091040260200160405190810160405280929190818152602001828054600181600116156101000203166002900480156117615780601f1061173657610100808354040283529160200191611761565b820191906000526020600020905b81548152906001019060200180831161174457829003601f168201915b505050505090806003018054600181600116156101000203166002900480601f0160208091040260200160405190810160405280929190818152602001828054600181600116156101000203166002900480156117ff5780601f106117d4576101008083540402835291602001916117ff565b820191906000526020600020905b8154815290600101906020018083116117e257829003601f168201915b505050505090806004018054600181600116156101000203166002900480601f01602080910402602001604051908101604052809291908181526020018280546001816001161561010002031660029004801561189d5780601f106118725761010080835404028352916020019161189d565b820191906000526020600020905b81548152906001019060200180831161188057829003601f168201915b505050505090806005018054600181600116156101000203166002900480601f01602080910402602001604051908101604052809291908181526020018280546001816001161561010002031660029004801561193b5780601f106119105761010080835404028352916020019161193b565b820191906000526020600020905b81548152906001019060200180831161191e57829003601f168201915b505050505090806006018054600181600116156101000203166002900480601f0160208091040260200160405190810160405280929190818152602001828054600181600116156101000203166002900480156119d95780601f106119ae576101008083540402835291602001916119d9565b820191906000526020600020905b8154815290600101906020018083116119bc57829003601f168201915b5050505050905087565b60608060006060600060603373ffffffffffffffffffffffffffffffffffffffff16600260008a815260200190815260200160002060009054906101000a900473ffffffffffffffffffffffffffffffffffffffff1673ffffffffffffffffffffffffffffffffffffffff16141515611ac4576040517f08c379a00000000000000000000000000000000000000000000000000000000081526004018080602001828103825260138152602001807f55736572206e6f7420417574686f72697a65640000000000000000000000000081525060200191505060405180910390fd5b60056000898152602001908152602001600020548711151515611b4f576040517f08c379a00000000000000000000000000000000000000000000000000000000081526004018080602001828103825260148152602001807f4e6f204f776e657220526567697374657265642100000000000000000000000081525060200191505060405180910390fd5b611b57612c25565b600460008a815260200190815260200160002088815481101515611b7757fe5b906000526020600020906006020160c06040519081016040529081600082018054600181600116156101000203166002900480601f016020809104026020016040519081016040528092919081815260200182805460018160011615610100020316600290048015611c2a5780601f10611bff57610100808354040283529160200191611c2a565b820191906000526020600020905b815481529060010190602001808311611c0d57829003601f168201915b50505050508152602001600182018054600181600116156101000203166002900480601f016020809104026020016040519081016040528092919081815260200182805460018160011615610100020316600290048015611ccc5780601f10611ca157610100808354040283529160200191611ccc565b820191906000526020600020905b815481529060010190602001808311611caf57829003601f168201915b5050505050815260200160028201548152602001600382018054600181600116156101000203166002900480601f016020809104026020016040519081016040528092919081815260200182805460018160011615610100020316600290048015611d785780601f10611d4d57610100808354040283529160200191611d78565b820191906000526020600020905b815481529060010190602001808311611d5b57829003601f168201915b5050505050815260200160048201548152602001600582018054600181600116156101000203166002900480601f016020809104026020016040519081016040528092919081815260200182805460018160011615610100020316600290048015611e245780601f10611df957610100808354040283529160200191611e24565b820191906000526020600020905b815481529060010190602001808311611e0757829003601f168201915b5050505050815250509050806000015181602001518260400151836060015184608001518560a00151859550849450829250809050965096509650965096509650509295509295509295565b60026020528060005260406000206000915054906101000a900473ffffffffffffffffffffffffffffffffffffffff1681565b60056020528060005260406000206000915090505481565b60008060003373ffffffffffffffffffffffffffffffffffffffff1673ffffffffffffffffffffffffffffffffffffffff16815260200190815260200160002060009054906101000a900460ff16905090565b60006001600083815260200190815260200160002060009054906101000a900460ff169050919050565b60016020528060005260406000206000915054906101000a900460ff1681565b6001600089815260200190815260200160002060009054906101000a900460ff161515611fed576040517f08c379a000000000000000000000000000000000000000000000000000000000815260040180806020018281038252601f8152602001807f537572766579206e756d626572206973206e6f7420726567697374657265640081525060200191505060405180910390fd5b80600260008a815260200190815260200160002060006101000a81548173ffffffffffffffffffffffffffffffffffffffff021916908373ffffffffffffffffffffffffffffffffffffffff1602179055506004600089815260200190815260200160002060c060405190810160405280898152602001888152602001878152602001868152602001858152602001848152509080600181540180825580915050906001820390600052602060002090600602016000909192909190915060008201518160000190805190602001906120c7929190612c5c565b5060208201518160010190805190602001906120e4929190612c5c565b5060408201518160020155606082015181600301908051906020019061210b929190612c5c565b506080820151816004015560a0820151816005019080519060200190612132929190612c5c565b50505050600560008981526020019081526020016000206000815480929190600101919050555060016000808373ffffffffffffffffffffffffffffffffffffffff1673ffffffffffffffffffffffffffffffffffffffff16815260200190815260200160002060006101000a81548160ff0219169083151502179055507fe980bc5fd411d6bf3fe5b165aa9df5cc3f1829dce2fd042df5ea529c3a4b3607886040518082815260200191505060405180910390a15050505050505050565b600033905090565b600160008e815260200190815260200160002060009054906101000a900460ff1615151561228f576040517f08c379a00000000000000000000000000000000000000000000000000000000081526004018080602001828103825260208152602001807f537572766579206e756d62657220616c7265616479207265676973746572656481525060200191505060405180910390fd5b60018060008f815260200190815260200160002060006101000a81548160ff02191690831515021790555060e0604051908101604052808e81526020018d81526020018c81526020018b81526020018a815260200189815260200188815250600360008f815260200190815260200160002060008201518160000155602082015181600101556040820151816002019080519060200190612331929190612c5c565b50606082015181600301908051906020019061234e929190612c5c565b50608082015181600401908051906020019061236b929190612c5c565b5060a0820151816005019080519060200190612388929190612c5c565b5060c08201518160060190805190602001906123a5929190612c5c565b509050506000600560008f8152602001908152602001600020819055506123d28d87878787878733611f58565b50505050505050505050505050565b60003373ffffffffffffffffffffffffffffffffffffffff166002600084815260200190815260200160002060009054906101000a900473ffffffffffffffffffffffffffffffffffffffff1673ffffffffffffffffffffffffffffffffffffffff161415156124b9576040517f08c379a00000000000000000000000000000000000000000000000000000000081526004018080602001828103825260128152602001807f4e6f20726567697374657265642075736572000000000000000000000000000081525060200191505060405180910390fd5b6002600083815260200190815260200160002060009054906101000a900473ffffffffffffffffffffffffffffffffffffffff169050919050565b60046020528160005260406000208181548110151561250f57fe5b906000526020600020906006020160009150915050806000018054600181600116156101000203166002900480601f0160208091040260200160405190810160405280929190818152602001828054600181600116156101000203166002900480156125bc5780601f10612591576101008083540402835291602001916125bc565b820191906000526020600020905b81548152906001019060200180831161259f57829003601f168201915b505050505090806001018054600181600116156101000203166002900480601f01602080910402602001604051908101604052809291908181526020018280546001816001161561010002031660029004801561265a5780601f1061262f5761010080835404028352916020019161265a565b820191906000526020600020905b81548152906001019060200180831161263d57829003601f168201915b505050505090806002015490806003018054600181600116156101000203166002900480601f0160208091040260200160405190810160405280929190818152602001828054600181600116156101000203166002900480156126fe5780601f106126d3576101008083540402835291602001916126fe565b820191906000526020600020905b8154815290600101906020018083116126e157829003601f168201915b505050505090806004015490806005018054600181600116156101000203166002900480601f0160208091040260200160405190810160405280929190818152602001828054600181600116156101000203166002900480156127a25780601f10612777576101008083540402835291602001916127a2565b820191906000526020600020905b81548152906001019060200180831161278557829003601f168201915b5050505050905086565b60008060608060608060606001600089815260200190815260200160002060009054906101000a900460ff161515612872576040517f08c379a00000000000000000000000000000000000000000000000000000000081526004018080602001828103825260288152602001807f4e6f204c616e64207265676973746572656420746f207468697320737572766581526020017f79206e756d62657200000000000000000000000000000000000000000000000081525060400191505060405180910390fd5b61287a612cdc565b600360008a815260200190815260200160002060e060405190810160405290816000820154815260200160018201548152602001600282018054600181600116156101000203166002900480601f0160208091040260200160405190810160405280929190818152602001828054600181600116156101000203166002900480156129465780601f1061291b57610100808354040283529160200191612946565b820191906000526020600020905b81548152906001019060200180831161292957829003601f168201915b50505050508152602001600382018054600181600116156101000203166002900480601f0160208091040260200160405190810160405280929190818152602001828054600181600116156101000203166002900480156129e85780601f106129bd576101008083540402835291602001916129e8565b820191906000526020600020905b8154815290600101906020018083116129cb57829003601f168201915b50505050508152602001600482018054600181600116156101000203166002900480601f016020809104026020016040519081016040528092919081815260200182805460018160011615610100020316600290048015612a8a5780601f10612a5f57610100808354040283529160200191612a8a565b820191906000526020600020905b815481529060010190602001808311612a6d57829003601f168201915b50505050508152602001600582018054600181600116156101000203166002900480601f016020809104026020016040519081016040528092919081815260200182805460018160011615610100020316600290048015612b2c5780601f10612b0157610100808354040283529160200191612b2c565b820191906000526020600020905b815481529060010190602001808311612b0f57829003601f168201915b50505050508152602001600682018054600181600116156101000203166002900480601f016020809104026020016040519081016040528092919081815260200182805460018160011615610100020316600290048015612bce5780601f10612ba357610100808354040283529160200191612bce565b820191906000526020600020905b815481529060010190602001808311612bb157829003601f168201915b5050505050815250509050806000015181602001518260400151836060015184608001518560a001518660c00151849450839350829250819150809050975097509750975097509750975050919395979092949650565b60c0604051908101604052806060815260200160608152602001600081526020016060815260200160008152602001606081525090565b828054600181600116156101000203166002900490600052602060002090601f016020900481019282601f10612c9d57805160ff1916838001178555612ccb565b82800160010185558215612ccb579182015b82811115612cca578251825591602001919060010190612caf565b5b509050612cd89190612d1a565b5090565b60e060405190810160405280600081526020016000815260200160608152602001606081526020016060815260200160608152602001606081525090565b612d3c91905b80821115612d38576000816000905550600101612d20565b5090565b9056fea165627a7a723058203d06cb77b8f70c6963cd47786b81bc630b7936b537481a78e8f7e753399445410029",
  "source": "pragma solidity >=0.4.21 <0.6.0;\r\n\r\ncontract LandRegistry{\r\n\r\n    struct Land{\r\n        uint surveyNo;\r\n        uint TotalArea;\r\n        string city;\r\n        string Revenue_Div;\r\n        string Mandal;\r\n        string District;\r\n        string state;\r\n    }\r\n\r\n    struct Owner{\r\n        string Name;\r\n        string Father_Name;\r\n        uint Aadhar_Number;\r\n        string Pan_Number;\r\n        uint Cost;\r\n        string Date;\r\n    \r\n    }\r\n\r\n    mapping(address => bool) public User_Mapping;\r\n    mapping(uint => bool) public SurveyNo_Mapping;\r\n    mapping(uint => address) public SurveyOwner_Mapping;\r\n    //mapping(address => uint) public OwnerSurvey_Mapping;\r\n    mapping(uint => Land) public Land_Mapping;\r\n    mapping(uint => Owner[]) public Owner_Mapping;\r\n    mapping(uint => uint) public OwnerCount;  \r\n\r\n    /*constructor() public{\r\n        RegisterLand(123,100,\"vij\", \"kri\", \"vij\",\"kri\", \"AP\");\r\n        RegisterOwner(123,\"Nuru\",\"Siraj\",291964219975,\"A12345678\",1000,28,1,2019);\r\n    }*/\r\n\r\n    event OwnerRegistration(uint _surveyNo);\r\n    event Registration(uint _surveyNo);\r\n    //event LandRegistration(uint _surveyNo);\r\n    \r\n    function getLandDetails(uint _SurveyNo) public view returns (uint,uint,string memory,string memory,string memory,string memory,string memory) {\r\n        require(SurveyNo_Mapping[_SurveyNo], \"No Land registered to this survey number\");\r\n        Land memory land = Land_Mapping[_SurveyNo];\r\n        return (land.surveyNo,land.TotalArea,land.city,land.Revenue_Div,land.Mandal,land.District,land.state);\r\n    }\r\n    \r\n    function getOwnerDetails(uint _SurveyNo, uint _count) public view returns (string memory,string memory,uint ,string memory,uint, string memory) {\r\n        require(SurveyOwner_Mapping[_SurveyNo] == msg.sender, \"User not Authorized\");\r\n        require(_count <= OwnerCount[_SurveyNo], \"No Owner Registered!\");\r\n        Owner memory Details = Owner_Mapping[_SurveyNo][_count];\r\n        return (Details.Name, Details.Father_Name, Details.Aadhar_Number, Details.Pan_Number, Details.Cost,Details.Date);\r\n    }\r\n    \r\n    function getPresentAddress() public view returns (address) {\r\n        return msg.sender;\r\n    }\r\n    \r\n    function getOwnerAddress(uint _SurveyNo) public view returns (address) {\r\n        require(SurveyOwner_Mapping[_SurveyNo] == msg.sender, \"No registered user\");\r\n        return SurveyOwner_Mapping[_SurveyNo];\r\n    }\r\n    \r\n    function CheckUser() public view returns (bool) {\r\n        return User_Mapping[msg.sender];\r\n    }\r\n    \r\n    function CheckSurveyNumber(uint _SurveyNo) public view returns (bool){\r\n        return SurveyNo_Mapping[_SurveyNo];\r\n    }\r\n\r\n    function RegisterLand(uint _SurveyNo, uint _TotalArea, string memory _City, string memory _RevenueDist, string memory _Mandal, string memory _District, string memory _State,string memory _Name, string memory _FName, uint _Aadhar, string memory _PAN, uint _Cost, string memory _Date) public {  \r\n        require(!SurveyNo_Mapping[_SurveyNo], \"Survey number already registered\");\r\n        \r\n        SurveyNo_Mapping[_SurveyNo] = true;\r\n        //OwnerSurvey_Mapping[msg.sender] = _SurveyNo;\r\n        Land_Mapping[_SurveyNo] = Land(_SurveyNo,_TotalArea,_City,_RevenueDist,_Mandal,_District,_State);\r\n        OwnerCount[_SurveyNo] = 0;\r\n\r\n        RegisterOwner(_SurveyNo,_Name,_FName,_Aadhar,_PAN,_Cost,_Date,msg.sender);\r\n    }\r\n    \r\n    function RegisterOwner(uint _SurveyNo, string memory _Name, string memory _FName, uint _Aadhar, string memory _PAN, uint _Cost, string memory _Date, address _address) public{\r\n        require(SurveyNo_Mapping[_SurveyNo], \"Survey number is not registered\");\r\n        \r\n        SurveyOwner_Mapping[_SurveyNo] = _address;\r\n        Owner_Mapping[_SurveyNo].push(Owner(_Name,_FName,_Aadhar,_PAN,_Cost,_Date));\r\n        //uint count = OwnerCount[_SurveyNo];\r\n        OwnerCount[_SurveyNo] ++;\r\n        User_Mapping[_address] = true;\r\n\r\n        emit OwnerRegistration(_SurveyNo);\r\n    }\r\n\r\n    function getOwnerCount(uint _SurveyNo) public view returns (int){\r\n        if(SurveyOwner_Mapping[_SurveyNo] == msg.sender && User_Mapping[msg.sender])\r\n            return int(OwnerCount[_SurveyNo]);\r\n        else{\r\n            int No = -1;\r\n            return (No);\r\n        }\r\n    }\r\n}\r\n",
  "sourcePath": "E:/Final Year proj's/LandRegistry_V/contracts/LandRegistry.sol",
  "compiler": {
    "name": "solc",
    "version": "0.5.0+commit.1d4f565a.Emscripten.clang"
  },
  "schemaVersion": "3.0.1",
  "updatedAt": "2019-02-06T19:02:54.585Z",
  "devdoc": {
    "methods": {}
  },
  "userdoc": {
    "methods": {}
  }
}